{
  "contractName": "Panini",
  "abi": [
    {
      "inputs": [
        {
          "internalType": "address",
          "name": "",
          "type": "address"
        },
        {
          "internalType": "uint256",
          "name": "",
          "type": "uint256"
        }
      ],
      "name": "figuritas",
      "outputs": [
        {
          "internalType": "uint256",
          "name": "",
          "type": "uint256"
        }
      ],
      "stateMutability": "view",
      "type": "function",
      "constant": true
    },
    {
      "inputs": [],
      "name": "obtenerPaquete",
      "outputs": [],
      "stateMutability": "nonpayable",
      "type": "function"
    },
    {
      "inputs": [],
      "name": "cantidadPaquetes",
      "outputs": [
        {
          "internalType": "uint256",
          "name": "cantPaquetes",
          "type": "uint256"
        }
      ],
      "stateMutability": "view",
      "type": "function",
      "constant": true
    },
    {
      "inputs": [],
      "name": "obtenerFiguritas",
      "outputs": [
        {
          "internalType": "uint256[]",
          "name": "lista",
          "type": "uint256[]"
        }
      ],
      "stateMutability": "view",
      "type": "function",
      "constant": true
    },
    {
      "inputs": [],
      "name": "abrirPaquete",
      "outputs": [],
      "stateMutability": "nonpayable",
      "type": "function"
    }
  ],
  "bytecode": "0x608060405261012c60005534801561001657600080fd5b50610809806100266000396000f3fe608060405234801561001057600080fd5b50600436106100575760003560e01c806314da86911461005c57806341e4a1141461007a57806348a13650146100aa5780634d878095146100b4578063b0e2f1c5146100d2575b600080fd5b6100646100dc565b60405161007191906104cb565b60405180910390f35b610094600480360381019061008f919061057c565b610171565b6040516100a191906105cb565b60405180910390f35b6100b26101a2565b005b6100bc6101f9565b6040516100c991906105cb565b60405180910390f35b6100da610240565b005b6060600260003373ffffffffffffffffffffffffffffffffffffffff1673ffffffffffffffffffffffffffffffffffffffff16815260200190815260200160002080548060200260200160405190810160405280929190818152602001828054801561016757602002820191906000526020600020905b815481526020019060010190808311610153575b5050505050905090565b6002602052816000526040600020818154811061018d57600080fd5b90600052602060002001600091509150505481565b600160003373ffffffffffffffffffffffffffffffffffffffff1673ffffffffffffffffffffffffffffffffffffffff16815260200190815260200160002060008154809291906101f290610615565b9190505550565b6000600160003373ffffffffffffffffffffffffffffffffffffffff1673ffffffffffffffffffffffffffffffffffffffff16815260200190815260200160002054905090565b6000600160003373ffffffffffffffffffffffffffffffffffffffff1673ffffffffffffffffffffffffffffffffffffffff16815260200190815260200160002054116102c2576040517f08c379a00000000000000000000000000000000000000000000000000000000081526004016102b9906106ba565b60405180910390fd5b600160003373ffffffffffffffffffffffffffffffffffffffff1673ffffffffffffffffffffffffffffffffffffffff1681526020019081526020016000206000815480929190610312906106da565b91905055506103216005610323565b565b60005b818110156103af57600260003373ffffffffffffffffffffffffffffffffffffffff1673ffffffffffffffffffffffffffffffffffffffff168152602001908152602001600020610376826103b3565b908060018154018082558091505060019003906000526020600020016000909190919091505580806103a790610615565b915050610326565b5050565b60008082426103c29190610703565b6040516020016103d29190610758565b6040516020818303038152906040528051906020012060001c9050600054816103fb91906107a2565b915050919050565b600081519050919050565b600082825260208201905092915050565b6000819050602082019050919050565b6000819050919050565b6104428161042f565b82525050565b60006104548383610439565b60208301905092915050565b6000602082019050919050565b600061047882610403565b610482818561040e565b935061048d8361041f565b8060005b838110156104be5781516104a58882610448565b97506104b083610460565b925050600181019050610491565b5085935050505092915050565b600060208201905081810360008301526104e5818461046d565b905092915050565b600080fd5b600073ffffffffffffffffffffffffffffffffffffffff82169050919050565b600061051d826104f2565b9050919050565b61052d81610512565b811461053857600080fd5b50565b60008135905061054a81610524565b92915050565b6105598161042f565b811461056457600080fd5b50565b60008135905061057681610550565b92915050565b60008060408385031215610593576105926104ed565b5b60006105a18582860161053b565b92505060206105b285828601610567565b9150509250929050565b6105c58161042f565b82525050565b60006020820190506105e060008301846105bc565b92915050565b7f4e487b7100000000000000000000000000000000000000000000000000000000600052601160045260246000fd5b60006106208261042f565b91507fffffffffffffffffffffffffffffffffffffffffffffffffffffffffffffffff8203610652576106516105e6565b5b600182019050919050565b600082825260208201905092915050565b7f4e6f2074656e6573207061717565746573207061726120616272697200000000600082015250565b60006106a4601c8361065d565b91506106af8261066e565b602082019050919050565b600060208201905081810360008301526106d381610697565b9050919050565b60006106e58261042f565b9150600082036106f8576106f76105e6565b5b600182039050919050565b600061070e8261042f565b91506107198361042f565b9250828201905080821115610731576107306105e6565b5b92915050565b6000819050919050565b61075261074d8261042f565b610737565b82525050565b60006107648284610741565b60208201915081905092915050565b7f4e487b7100000000000000000000000000000000000000000000000000000000600052601260045260246000fd5b60006107ad8261042f565b91506107b88361042f565b9250826107c8576107c7610773565b5b82820690509291505056fea2646970667358221220081c2ad2952d3e0aaae5545c0d63f3a248b4a6271283815bd3fc5df4a9be49c064736f6c63430008110033",
  "immutableReferences": {},
  "source": "//SPDX-License-Identifier: MIT\r\npragma solidity ^0.8.17;\r\n\r\ncontract Panini {\r\n\r\n    uint cantFiguritas = 300;\r\n\r\n    mapping(address => uint) paquetes; \r\n    mapping(address => uint[]) public figuritas; \r\n\r\n    function obtenerPaquete() public {\r\n        paquetes[msg.sender]++;\r\n    }\r\n\r\n    function cantidadPaquetes()  public view returns (uint cantPaquetes)  {\r\n        return paquetes[msg.sender];\r\n    }\r\n\r\n    function agregarNFiguritas(uint cantidad) private {\r\n        for (uint i; i < cantidad; i++) {\r\n            figuritas[msg.sender].push(figuritaRandom(i));\r\n        }\r\n    }\r\n\r\n    function figuritaRandom(uint i) private view returns (uint figurita) {\r\n        uint rand = uint(keccak256(abi.encodePacked(block.timestamp + i)));\r\n        return rand % cantFiguritas;        \r\n        \r\n    }\r\n\r\n    function obtenerFiguritas() public view returns (uint[] memory lista){\r\n        return figuritas[msg.sender];\r\n    }\r\n    \r\n    function abrirPaquete() public {\r\n        require(paquetes[msg.sender] > 0, \"No tenes paquetes para abrir\");\r\n        paquetes[msg.sender]--;\r\n        agregarNFiguritas(5);\r\n    }\r\n\r\n}\r\n\r\n\r\n\r\n\r\n",
  "sourcePath": "C:\\Users\\Santiago\\Desktop\\firstsmartcontract\\project\\contracts\\Panini.sol",
  "compiler": {
    "name": "solc",
    "version": "0.8.17+commit.8df45f5f.Emscripten.clang"
  },
  "schemaVersion": "3.4.10",
  "updatedAt": "2022-10-15T22:32:51.523Z",
  "networkType": "ethereum",
  "devdoc": {
    "kind": "dev",
    "methods": {},
    "version": 1
  },
  "userdoc": {
    "kind": "user",
    "methods": {},
    "version": 1
  }
}