{
  "contractName": "Panini",
  "abi": [
    {
      "inputs": [
        {
          "internalType": "address",
          "name": "",
          "type": "address"
        },
        {
          "internalType": "uint256",
          "name": "",
          "type": "uint256"
        }
      ],
      "name": "figuritas",
      "outputs": [
        {
          "internalType": "uint256",
          "name": "",
          "type": "uint256"
        }
      ],
      "stateMutability": "view",
      "type": "function"
    },
    {
      "inputs": [],
      "name": "obtenerPaquete",
      "outputs": [],
      "stateMutability": "nonpayable",
      "type": "function"
    },
    {
      "inputs": [],
      "name": "cantidadPaquetes",
      "outputs": [
        {
          "internalType": "uint256",
          "name": "cantPaquetes",
          "type": "uint256"
        }
      ],
      "stateMutability": "view",
      "type": "function"
    },
    {
      "inputs": [],
      "name": "obtenerFiguritas",
      "outputs": [
        {
          "internalType": "uint256[]",
          "name": "lista",
          "type": "uint256[]"
        }
      ],
      "stateMutability": "view",
      "type": "function"
    },
    {
      "inputs": [],
      "name": "abrirPaquete",
      "outputs": [],
      "stateMutability": "nonpayable",
      "type": "function"
    }
  ],
  "bytecode": "0x608060405261012c600055600560015534801561001b57600080fd5b5061080a8061002b6000396000f3fe608060405234801561001057600080fd5b50600436106100575760003560e01c806314da86911461005c57806341e4a1141461007a57806348a13650146100aa5780634d878095146100b4578063b0e2f1c5146100d2575b600080fd5b6100646100dc565b60405161007191906104cc565b60405180910390f35b610094600480360381019061008f919061057d565b610171565b6040516100a191906105cc565b60405180910390f35b6100b26101a2565b005b6100bc6101f9565b6040516100c991906105cc565b60405180910390f35b6100da610240565b005b6060600360003373ffffffffffffffffffffffffffffffffffffffff1673ffffffffffffffffffffffffffffffffffffffff16815260200190815260200160002080548060200260200160405190810160405280929190818152602001828054801561016757602002820191906000526020600020905b815481526020019060010190808311610153575b5050505050905090565b6003602052816000526040600020818154811061018d57600080fd5b90600052602060002001600091509150505481565b600260003373ffffffffffffffffffffffffffffffffffffffff1673ffffffffffffffffffffffffffffffffffffffff16815260200190815260200160002060008154809291906101f290610616565b9190505550565b6000600260003373ffffffffffffffffffffffffffffffffffffffff1673ffffffffffffffffffffffffffffffffffffffff16815260200190815260200160002054905090565b6000600260003373ffffffffffffffffffffffffffffffffffffffff1673ffffffffffffffffffffffffffffffffffffffff16815260200190815260200160002054116102c2576040517f08c379a00000000000000000000000000000000000000000000000000000000081526004016102b9906106bb565b60405180910390fd5b600260003373ffffffffffffffffffffffffffffffffffffffff1673ffffffffffffffffffffffffffffffffffffffff1681526020019081526020016000206000815480929190610312906106db565b9190505550610322600154610324565b565b60005b818110156103b057600360003373ffffffffffffffffffffffffffffffffffffffff1673ffffffffffffffffffffffffffffffffffffffff168152602001908152602001600020610377826103b4565b908060018154018082558091505060019003906000526020600020016000909190919091505580806103a890610616565b915050610327565b5050565b60008082426103c39190610704565b6040516020016103d39190610759565b6040516020818303038152906040528051906020012060001c9050600054816103fc91906107a3565b915050919050565b600081519050919050565b600082825260208201905092915050565b6000819050602082019050919050565b6000819050919050565b61044381610430565b82525050565b6000610455838361043a565b60208301905092915050565b6000602082019050919050565b600061047982610404565b610483818561040f565b935061048e83610420565b8060005b838110156104bf5781516104a68882610449565b97506104b183610461565b925050600181019050610492565b5085935050505092915050565b600060208201905081810360008301526104e6818461046e565b905092915050565b600080fd5b600073ffffffffffffffffffffffffffffffffffffffff82169050919050565b600061051e826104f3565b9050919050565b61052e81610513565b811461053957600080fd5b50565b60008135905061054b81610525565b92915050565b61055a81610430565b811461056557600080fd5b50565b60008135905061057781610551565b92915050565b60008060408385031215610594576105936104ee565b5b60006105a28582860161053c565b92505060206105b385828601610568565b9150509250929050565b6105c681610430565b82525050565b60006020820190506105e160008301846105bd565b92915050565b7f4e487b7100000000000000000000000000000000000000000000000000000000600052601160045260246000fd5b600061062182610430565b91507fffffffffffffffffffffffffffffffffffffffffffffffffffffffffffffffff8203610653576106526105e7565b5b600182019050919050565b600082825260208201905092915050565b7f4e6f2074656e6573207061717565746573207061726120616272697200000000600082015250565b60006106a5601c8361065e565b91506106b08261066f565b602082019050919050565b600060208201905081810360008301526106d481610698565b9050919050565b60006106e682610430565b9150600082036106f9576106f86105e7565b5b600182039050919050565b600061070f82610430565b915061071a83610430565b9250828201905080821115610732576107316105e7565b5b92915050565b6000819050919050565b61075361074e82610430565b610738565b82525050565b60006107658284610742565b60208201915081905092915050565b7f4e487b7100000000000000000000000000000000000000000000000000000000600052601260045260246000fd5b60006107ae82610430565b91506107b983610430565b9250826107c9576107c8610774565b5b82820690509291505056fea2646970667358221220b4d20943dc5c2131e7607dc8503d140df26adf984b4861dc6aad99c95e74588364736f6c63430008110033",
  "immutableReferences": {},
  "source": "//SPDX-License-Identifier: MIT\r\npragma solidity ^0.8.17;\r\n\r\ncontract Panini {\r\n\r\n    uint cantFiguritas = 300;\r\n    uint figuritasPorPaquete = 5;\r\n\r\n    mapping(address => uint) paquetes; \r\n    mapping(address => uint[]) public figuritas; \r\n\r\n    function obtenerPaquete() public {\r\n        paquetes[msg.sender]++;\r\n    }\r\n\r\n    function cantidadPaquetes()  public view returns (uint cantPaquetes)  {\r\n        return paquetes[msg.sender];\r\n    }\r\n\r\n    function agregarNFiguritas(uint cantidad) private {\r\n        for (uint i; i < cantidad; i++) {\r\n            figuritas[msg.sender].push(figuritaRandom(i));\r\n        }\r\n    }\r\n\r\n    function figuritaRandom(uint i) private view returns (uint figurita) {\r\n        uint rand = uint(keccak256(abi.encodePacked(block.timestamp + i)));\r\n        return rand % cantFiguritas;        \r\n        \r\n    }\r\n\r\n    function obtenerFiguritas() public view returns (uint[] memory lista){\r\n        return figuritas[msg.sender];\r\n    }\r\n    \r\n    function abrirPaquete() public {\r\n        require(paquetes[msg.sender] > 0, \"No tenes paquetes para abrir\");\r\n        paquetes[msg.sender]--;\r\n        agregarNFiguritas(figuritasPorPaquete);\r\n    }\r\n\r\n}\r\n\r\n\r\n\r\n\r\n",
  "sourcePath": "C:\\Users\\Santiago\\Desktop\\firstsmartcontract\\panini\\contracts\\Panini.sol",
  "compiler": {
    "name": "solc",
    "version": "0.8.17+commit.8df45f5f.Emscripten.clang"
  },
  "schemaVersion": "3.4.10",
  "updatedAt": "2022-10-22T18:32:18.253Z",
  "devdoc": {
    "kind": "dev",
    "methods": {},
    "version": 1
  },
  "userdoc": {
    "kind": "user",
    "methods": {},
    "version": 1
  }
}